:100000000C942A000C9434000C9434000C943400AA
:100010000C9434000C9434000C9434000C94340090
:100020000C9434000C9434000C9434000C94340080
:100030000C9434000C9434000C9434000C94340070
:100040000C9434000C9434000C9434000C94340060
:100050000C94340011241FBECFE5D8E0DEBFCDBF25
:100060000E9463000C9484000C9400000197FC0132
:10007000108208952FEFFC0120830895FC018291E6
:1000800021E030E002C0220F331F6A95E2F7282BEF
:1000900020830895FC01908121E030E002C0220F0E
:1000A000331F6A95E2F72095292320830895FC01E8
:1000B000408121E030E002C0220F331F6A95E2F751
:1000C0002427208308958BE390E00E94360060E0AF
:1000D0008BE390E00E943E008BE390E00E943A00A8
:1000E00060E08BE390E00E944A0060E08BE390E0E8
:1000F0000E9457002FEF89E698E121508040904000
:0C010000E1F700C00000F1CFF894FFCF41
:00000001FF
